{
  "address": "0xCf7Ed3AccA5a467e9e704C703E8D87F634fB0Fc9",
  "abi": [
    {
      "inputs": [
        {
          "internalType": "address",
          "name": "vrfCoordinatorV2",
          "type": "address"
        },
        {
          "internalType": "uint64",
          "name": "subscriptionId",
          "type": "uint64"
        },
        {
          "internalType": "bytes32",
          "name": "keyHash",
          "type": "bytes32"
        },
        {
          "internalType": "uint256",
          "name": "interval",
          "type": "uint256"
        },
        {
          "internalType": "uint256",
          "name": "entranceFee",
          "type": "uint256"
        },
        {
          "internalType": "uint32",
          "name": "callbackGasLimit",
          "type": "uint32"
        }
      ],
      "stateMutability": "nonpayable",
      "type": "constructor"
    },
    {
      "inputs": [
        {
          "internalType": "address",
          "name": "have",
          "type": "address"
        },
        {
          "internalType": "address",
          "name": "want",
          "type": "address"
        }
      ],
      "name": "OnlyCoordinatorCanFulfill",
      "type": "error"
    },
    {
      "inputs": [],
      "name": "Raffle__NotEnoughEthEntered",
      "type": "error"
    },
    {
      "inputs": [],
      "name": "Raffle__NotOpen",
      "type": "error"
    },
    {
      "inputs": [],
      "name": "Raffle__TransferFailed",
      "type": "error"
    },
    {
      "inputs": [
        {
          "internalType": "uint256",
          "name": "currentBalance",
          "type": "uint256"
        },
        {
          "internalType": "uint256",
          "name": "numPlayers",
          "type": "uint256"
        },
        {
          "internalType": "uint256",
          "name": "raffleState",
          "type": "uint256"
        }
      ],
      "name": "Raffle__UpkeepNotNeeded",
      "type": "error"
    },
    {
      "anonymous": false,
      "inputs": [
        {
          "indexed": true,
          "internalType": "address",
          "name": "player",
          "type": "address"
        }
      ],
      "name": "RaffleEnter",
      "type": "event"
    },
    {
      "anonymous": false,
      "inputs": [
        {
          "indexed": true,
          "internalType": "uint256",
          "name": "requestId",
          "type": "uint256"
        }
      ],
      "name": "RequestedRaffleWinner",
      "type": "event"
    },
    {
      "anonymous": false,
      "inputs": [
        {
          "indexed": true,
          "internalType": "address",
          "name": "recentWinner",
          "type": "address"
        }
      ],
      "name": "WinnerPicked",
      "type": "event"
    },
    {
      "inputs": [
        {
          "internalType": "bytes",
          "name": "",
          "type": "bytes"
        }
      ],
      "name": "checkUpkeep",
      "outputs": [
        {
          "internalType": "bool",
          "name": "upkeepNeeded",
          "type": "bool"
        },
        {
          "internalType": "bytes",
          "name": "",
          "type": "bytes"
        }
      ],
      "stateMutability": "view",
      "type": "function"
    },
    {
      "inputs": [],
      "name": "enterRaffle",
      "outputs": [],
      "stateMutability": "payable",
      "type": "function"
    },
    {
      "inputs": [],
      "name": "getNumWords",
      "outputs": [
        {
          "internalType": "uint256",
          "name": "",
          "type": "uint256"
        }
      ],
      "stateMutability": "pure",
      "type": "function"
    },
    {
      "inputs": [
        {
          "internalType": "uint256",
          "name": "index",
          "type": "uint256"
        }
      ],
      "name": "getPlayer",
      "outputs": [
        {
          "internalType": "address",
          "name": "",
          "type": "address"
        }
      ],
      "stateMutability": "view",
      "type": "function"
    },
    {
      "inputs": [],
      "name": "getRecentWinner",
      "outputs": [
        {
          "internalType": "address",
          "name": "",
          "type": "address"
        }
      ],
      "stateMutability": "view",
      "type": "function"
    },
    {
      "inputs": [
        {
          "internalType": "bytes",
          "name": "",
          "type": "bytes"
        }
      ],
      "name": "performUpkeep",
      "outputs": [],
      "stateMutability": "nonpayable",
      "type": "function"
    },
    {
      "inputs": [],
      "name": "raffleState",
      "outputs": [
        {
          "internalType": "enum Raffle.RaffleState",
          "name": "",
          "type": "uint8"
        }
      ],
      "stateMutability": "view",
      "type": "function"
    },
    {
      "inputs": [
        {
          "internalType": "uint256",
          "name": "requestId",
          "type": "uint256"
        },
        {
          "internalType": "uint256[]",
          "name": "randomWords",
          "type": "uint256[]"
        }
      ],
      "name": "rawFulfillRandomWords",
      "outputs": [],
      "stateMutability": "nonpayable",
      "type": "function"
    }
  ],
  "transactionHash": "0xb424a4afd98342d4a22a28086de5316964b4cc1a84ea706b209a2676f26daad1",
  "args": [
    "0x5FbDB2315678afecb367f032d93F642f64180aa3",
    "1",
    "0x474e34a077df58807dbe9c96d3c009b23b3c6d0cce433e59bbf5b34f823bc56c",
    "30",
    "10000000000000000",
    "500000"
  ],
  "numDeployments": 1,
  "solcInputHash": "9dbebadce15a53f68a0d9611f28340ce",
  "bytecode": "0x6101606040523480156200001257600080fd5b506040516200167c3803806200167c833981810160405281019062000038919062000294565b858073ffffffffffffffffffffffffffffffffffffffff1660808173ffffffffffffffffffffffffffffffffffffffff1681525050508160a081815250508573ffffffffffffffffffffffffffffffffffffffff1660c08173ffffffffffffffffffffffffffffffffffffffff16815250508360e081815250508467ffffffffffffffff166101008167ffffffffffffffff16815250508063ffffffff166101208163ffffffff16815250506000600260146101000a81548160ff021916908360018111156200010d576200010c62000330565b5b0217905550426001819055508261014081815250505050505050506200035f565b600080fd5b600073ffffffffffffffffffffffffffffffffffffffff82169050919050565b6000620001608262000133565b9050919050565b620001728162000153565b81146200017e57600080fd5b50565b600081519050620001928162000167565b92915050565b600067ffffffffffffffff82169050919050565b620001b78162000198565b8114620001c357600080fd5b50565b600081519050620001d781620001ac565b92915050565b6000819050919050565b620001f281620001dd565b8114620001fe57600080fd5b50565b6000815190506200021281620001e7565b92915050565b6000819050919050565b6200022d8162000218565b81146200023957600080fd5b50565b6000815190506200024d8162000222565b92915050565b600063ffffffff82169050919050565b6200026e8162000253565b81146200027a57600080fd5b50565b6000815190506200028e8162000263565b92915050565b60008060008060008060c08789031215620002b457620002b36200012e565b5b6000620002c489828a0162000181565b9650506020620002d789828a01620001c6565b9550506040620002ea89828a0162000201565b9450506060620002fd89828a016200023c565b93505060806200031089828a016200023c565b92505060a06200032389828a016200027d565b9150509295509295509295565b7f4e487b7100000000000000000000000000000000000000000000000000000000600052602160045260246000fd5b60805160a05160c05160e0516101005161012051610140516112bb620003c1600039600061069a0152600061053f0152600061051c015260006104fb015260006104bf0152600061029a0152600081816101da015261022e01526112bb6000f3fe60806040526004361061007b5760003560e01c806353a2c19a1161004e57806353a2c19a1461010757806355c81595146101325780636e04ff0d1461015d578063e55ae4e81461019b5761007b565b80631fe543e3146100805780632cfcc539146100a95780634585e33b146100b3578063473f1ddc146100dc575b600080fd5b34801561008c57600080fd5b506100a760048036038101906100a29190610bc6565b6101d8565b005b6100b1610298565b005b3480156100bf57600080fd5b506100da60048036038101906100d59190610c7d565b610407565b005b3480156100e857600080fd5b506100f1610607565b6040516100fe9190610d0b565b60405180910390f35b34801561011357600080fd5b5061011c610631565b6040516101299190610d35565b60405180910390f35b34801561013e57600080fd5b50610147610640565b6040516101549190610dc7565b60405180910390f35b34801561016957600080fd5b50610184600480360381019061017f9190610e97565b610657565b604051610192929190610f83565b60405180910390f35b3480156101a757600080fd5b506101c260048036038101906101bd9190610fb3565b610704565b6040516101cf9190610d0b565b60405180910390f35b7f000000000000000000000000000000000000000000000000000000000000000073ffffffffffffffffffffffffffffffffffffffff163373ffffffffffffffffffffffffffffffffffffffff161461028a57337f00000000000000000000000000000000000000000000000000000000000000006040517f1cf993f4000000000000000000000000000000000000000000000000000000008152600401610281929190610fe0565b60405180910390fd5b610294828261074b565b5050565b7f00000000000000000000000000000000000000000000000000000000000000003410156102f2576040517f066d781f00000000000000000000000000000000000000000000000000000000815260040160405180910390fd5b6000600181111561030657610305610d50565b5b600260149054906101000a900460ff16600181111561032857610327610d50565b5b1461035f576040517f1425571c00000000000000000000000000000000000000000000000000000000815260040160405180910390fd5b6000339080600181540180825580915050600190039060005260206000200160009091909190916101000a81548173ffffffffffffffffffffffffffffffffffffffff021916908373ffffffffffffffffffffffffffffffffffffffff1602179055503373ffffffffffffffffffffffffffffffffffffffff167f0805e1d667bddb8a95f0f09880cf94f403fb596ce79928d9f29b74203ba284d460405160405180910390a2565b600061042160405180602001604052806000815250610657565b509050806104905747600080549050600260149054906101000a900460ff16600181111561045257610451610d50565b5b6040517f584327aa00000000000000000000000000000000000000000000000000000000815260040161048793929190611009565b60405180910390fd5b6001600260146101000a81548160ff021916908360018111156104b6576104b5610d50565b5b021790555060007f000000000000000000000000000000000000000000000000000000000000000073ffffffffffffffffffffffffffffffffffffffff16635d3b1d307f00000000000000000000000000000000000000000000000000000000000000007f000000000000000000000000000000000000000000000000000000000000000060037f000000000000000000000000000000000000000000000000000000000000000060016040518663ffffffff1660e01b81526004016105809594939291906110b8565b602060405180830381600087803b15801561059a57600080fd5b505af11580156105ae573d6000803e3d6000fd5b505050506040513d601f19601f820116820180604052508101906105d29190611120565b9050807fcd6e45c8998311cab7e9d4385596cac867e20a0587194b954fa3a731c93ce78b60405160405180910390a250505050565b6000600260009054906101000a900473ffffffffffffffffffffffffffffffffffffffff16905090565b6000600163ffffffff16905090565b6000600260149054906101000a900460ff16905090565b600060606000600260149054906101000a900460ff16600181111561067f5761067e610d50565b5b6000600181111561069357610692610d50565b5b14905060007f0000000000000000000000000000000000000000000000000000000000000000600154426106c7919061117c565b119050600080600080549050119050600080471190508380156106e75750825b80156106f05750815b80156106f95750805b955050505050915091565b6000808281548110610719576107186111b0565b5b9060005260206000200160009054906101000a900473ffffffffffffffffffffffffffffffffffffffff169050919050565b6000808054905082600081518110610766576107656111b0565b5b6020026020010151610778919061120e565b9050600080828154811061078f5761078e6111b0565b5b9060005260206000200160009054906101000a900473ffffffffffffffffffffffffffffffffffffffff16905080600260006101000a81548173ffffffffffffffffffffffffffffffffffffffff021916908373ffffffffffffffffffffffffffffffffffffffff1602179055506000600260146101000a81548160ff0219169083600181111561082357610822610d50565b5b0217905550600067ffffffffffffffff81111561084357610842610a83565b5b6040519080825280602002602001820160405280156108715781602001602082028036833780820191505090505b506000908051906020019061088792919061097c565b504260018190555060008173ffffffffffffffffffffffffffffffffffffffff16476040516108b590611270565b60006040518083038185875af1925050503d80600081146108f2576040519150601f19603f3d011682016040523d82523d6000602084013e6108f7565b606091505b5050905080610932576040517fa1d04b3900000000000000000000000000000000000000000000000000000000815260040160405180910390fd5b8173ffffffffffffffffffffffffffffffffffffffff167f5b690ec4a06fe979403046eaeea5b3ce38524683c3001f662c8b5a829632f7df60405160405180910390a25050505050565b8280548282559060005260206000209081019282156109f5579160200282015b828111156109f45782518260006101000a81548173ffffffffffffffffffffffffffffffffffffffff021916908373ffffffffffffffffffffffffffffffffffffffff1602179055509160200191906001019061099c565b5b509050610a029190610a06565b5090565b5b80821115610a1f576000816000905550600101610a07565b5090565b6000604051905090565b600080fd5b600080fd5b6000819050919050565b610a4a81610a37565b8114610a5557600080fd5b50565b600081359050610a6781610a41565b92915050565b600080fd5b6000601f19601f8301169050919050565b7f4e487b7100000000000000000000000000000000000000000000000000000000600052604160045260246000fd5b610abb82610a72565b810181811067ffffffffffffffff82111715610ada57610ad9610a83565b5b80604052505050565b6000610aed610a23565b9050610af98282610ab2565b919050565b600067ffffffffffffffff821115610b1957610b18610a83565b5b602082029050602081019050919050565b600080fd5b6000610b42610b3d84610afe565b610ae3565b90508083825260208201905060208402830185811115610b6557610b64610b2a565b5b835b81811015610b8e5780610b7a8882610a58565b845260208401935050602081019050610b67565b5050509392505050565b600082601f830112610bad57610bac610a6d565b5b8135610bbd848260208601610b2f565b91505092915050565b60008060408385031215610bdd57610bdc610a2d565b5b6000610beb85828601610a58565b925050602083013567ffffffffffffffff811115610c0c57610c0b610a32565b5b610c1885828601610b98565b9150509250929050565b600080fd5b60008083601f840112610c3d57610c3c610a6d565b5b8235905067ffffffffffffffff811115610c5a57610c59610c22565b5b602083019150836001820283011115610c7657610c75610b2a565b5b9250929050565b60008060208385031215610c9457610c93610a2d565b5b600083013567ffffffffffffffff811115610cb257610cb1610a32565b5b610cbe85828601610c27565b92509250509250929050565b600073ffffffffffffffffffffffffffffffffffffffff82169050919050565b6000610cf582610cca565b9050919050565b610d0581610cea565b82525050565b6000602082019050610d206000830184610cfc565b92915050565b610d2f81610a37565b82525050565b6000602082019050610d4a6000830184610d26565b92915050565b7f4e487b7100000000000000000000000000000000000000000000000000000000600052602160045260246000fd5b60028110610d9057610d8f610d50565b5b50565b6000819050610da182610d7f565b919050565b6000610db182610d93565b9050919050565b610dc181610da6565b82525050565b6000602082019050610ddc6000830184610db8565b92915050565b600080fd5b600067ffffffffffffffff821115610e0257610e01610a83565b5b610e0b82610a72565b9050602081019050919050565b82818337600083830152505050565b6000610e3a610e3584610de7565b610ae3565b905082815260208101848484011115610e5657610e55610de2565b5b610e61848285610e18565b509392505050565b600082601f830112610e7e57610e7d610a6d565b5b8135610e8e848260208601610e27565b91505092915050565b600060208284031215610ead57610eac610a2d565b5b600082013567ffffffffffffffff811115610ecb57610eca610a32565b5b610ed784828501610e69565b91505092915050565b60008115159050919050565b610ef581610ee0565b82525050565b600081519050919050565b600082825260208201905092915050565b60005b83811015610f35578082015181840152602081019050610f1a565b83811115610f44576000848401525b50505050565b6000610f5582610efb565b610f5f8185610f06565b9350610f6f818560208601610f17565b610f7881610a72565b840191505092915050565b6000604082019050610f986000830185610eec565b8181036020830152610faa8184610f4a565b90509392505050565b600060208284031215610fc957610fc8610a2d565b5b6000610fd784828501610a58565b91505092915050565b6000604082019050610ff56000830185610cfc565b6110026020830184610cfc565b9392505050565b600060608201905061101e6000830186610d26565b61102b6020830185610d26565b6110386040830184610d26565b949350505050565b6000819050919050565b61105381611040565b82525050565b600067ffffffffffffffff82169050919050565b61107681611059565b82525050565b600061ffff82169050919050565b6110938161107c565b82525050565b600063ffffffff82169050919050565b6110b281611099565b82525050565b600060a0820190506110cd600083018861104a565b6110da602083018761106d565b6110e7604083018661108a565b6110f460608301856110a9565b61110160808301846110a9565b9695505050505050565b60008151905061111a81610a41565b92915050565b60006020828403121561113657611135610a2d565b5b60006111448482850161110b565b91505092915050565b7f4e487b7100000000000000000000000000000000000000000000000000000000600052601160045260246000fd5b600061118782610a37565b915061119283610a37565b9250828210156111a5576111a461114d565b5b828203905092915050565b7f4e487b7100000000000000000000000000000000000000000000000000000000600052603260045260246000fd5b7f4e487b7100000000000000000000000000000000000000000000000000000000600052601260045260246000fd5b600061121982610a37565b915061122483610a37565b925082611234576112336111df565b5b828206905092915050565b600081905092915050565b50565b600061125a60008361123f565b91506112658261124a565b600082019050919050565b600061127b8261124d565b915081905091905056fea2646970667358221220519bf96ebf72051ebf9926a62500f8a2a68d3108dcbbd4b350e7ae32dda9cb2c64736f6c63430008090033",
  "devdoc": {
    "author": "BigTava with the help of Patrick Collins",
    "details": "This implements Chainkink VRF v 2 and Chainlink Keepers",
    "kind": "dev",
    "methods": {
      "checkUpkeep(bytes)": {
        "details": "This is the function that the Chainlink Keeper nodes call they look for the `upkeepNeeded` to return true. The following should be true in order to return true: 1. Our time interval should have passed 2. The lottery shuold have at least 1 player, and have some ETH 3. Our subscription is funded with LINK 4. The lottery should be in an \"open\" state"
      }
    },
    "title": "A sample Raffle Contract",
    "version": 1
  },
  "userdoc": {
    "kind": "user",
    "methods": {},
    "notice": "This contract is for creating an untamperable decentalized smart contract",
    "version": 1
  },
  "storageLayout": {
    "storage": [
      {
        "astId": 208,
        "contract": "contracts/Raffle.sol:Raffle",
        "label": "s_players",
        "offset": 0,
        "slot": "0",
        "type": "t_array(t_address_payable)dyn_storage"
      },
      {
        "astId": 225,
        "contract": "contracts/Raffle.sol:Raffle",
        "label": "s_lastTimeStamp",
        "offset": 0,
        "slot": "1",
        "type": "t_uint256"
      },
      {
        "astId": 229,
        "contract": "contracts/Raffle.sol:Raffle",
        "label": "s_recentWinner",
        "offset": 0,
        "slot": "2",
        "type": "t_address"
      },
      {
        "astId": 232,
        "contract": "contracts/Raffle.sol:Raffle",
        "label": "s_raffleState",
        "offset": 20,
        "slot": "2",
        "type": "t_enum(RaffleState)203"
      }
    ],
    "types": {
      "t_address": {
        "encoding": "inplace",
        "label": "address",
        "numberOfBytes": "20"
      },
      "t_address_payable": {
        "encoding": "inplace",
        "label": "address payable",
        "numberOfBytes": "20"
      },
      "t_array(t_address_payable)dyn_storage": {
        "base": "t_address_payable",
        "encoding": "dynamic_array",
        "label": "address payable[]",
        "numberOfBytes": "32"
      },
      "t_enum(RaffleState)203": {
        "encoding": "inplace",
        "label": "enum Raffle.RaffleState",
        "numberOfBytes": "1"
      },
      "t_uint256": {
        "encoding": "inplace",
        "label": "uint256",
        "numberOfBytes": "32"
      }
    }
  }
}